:02000004FF00FB
:28000000010800F000006208C05D89FD0400FFFFFFFF400600E206107A7320020A0080050000400100000004B1
:02000004FF00FB
:FB05800018010000A21A006C3000001B33000000000000141E0802B004000000000000000080020088137206000B0000000001B30100177F0100806902000000B80400001BB7000A05005C45200001800200F00A0A080088112000010F00000A08001411200007C900000A08004411200009C900000A08002811200000C100000A08005811200000C100000A08001011200009C800000A08004011200008C800000A08001811200008C700000A08004811200007C700000A080024112000148100000A0800541120001481000003010001821D00FF04141E325A0001000031000158FF7F00E00100E20100E40100E601000AB00C6845200025F648FB01D03D1D
:FB067B00F697BA3DF6E5BA0000044B1B884FEA1323012203200DF6B0FA11F64BB94652200000F0BEF80DF648F800F093F900F0CCF9002801D00DF694BD0DF6D9BD80F86E60284600F086F900F0BFF9002801D00DF6ECBD0DF61ABEBDE8104000F0EAB9E01C024900F013FE0CF624BD00002052200001D0052901D10CF6A0BE00F034FA0CF6AEBE00F03CFA08BD10B500F074FA04460AF664BE0BF639FC00F07BFA0AF6CCBE10B500F0B7FA10BD00F0EBBA44F6B2F800F025FB0CF60ABBC01C11F659FB0CF6DDBA0000BDE8104000F026BD10B509490720087600F0EDFB10BD012908D1012806D105480168054A1160006804490860002070474031200058FF97
:FB0776003100301120006011200018B5254B421AC3F800D0009B121F23F4784303F5704323F0404343F0805303F100430093884202D843F4806001E023F48060C0F38021C1F1010161F3DB60C0F3C06161F35D70C2F3093161F30900C2F34A0161F31A40009018BD38B5024621F0010022F001052946FFF7CAFF0A4C009069462846626828F671F86068401C606038BD13B5044C01A9626828F667F86068401C60601CBD0000145220002DE9F0410D46044616461F460821284644F657F83B46324629462046BDE8F0410AF64EBD38B5054626A104200AF680F8FF2028706946042026F660FA694602200AF676F8002408E0285D694626F656FA694602200A39
:FB087100F66CF8641C6878801CA042F2D838BD70B505461848006800281DD0174C0020E070F720A0709220207101206071E21DF021501C26F673FC0646A071062101EBC00060704DB1012D01D0022D03D12946204625F6C9F9304670BD2046FFF7B8FFF9E7AFF253000649C1F82C017047000040242A23000000004C2D2000CC3E2000B02B200070B504460D4610460FF657F905F0004104F00202114316D114F02C0F13D02C40044014F00C0F0ED1A1060CD540060AD50BF6BAFB05F04001084302D04FF0004070BD024870BD002070BD00000500008010B51BF64BFC08B11AF6D1FD0021BDE810404FF49662052012F6F6BA8E48006890F870007047102922
:FB096C0000D910210A4601468A4843F68BBF102900D910210A460146874843F683BF8748006800F0200070478448016821F02001016070478148016841F02001016070477E48006800F0400070477C48016821F04001016070477948016841F040010160704770B572480468257835B97248062204F10A01083843F655FF607C20B1E07A10B10520A0701EE0207B400705D4A07C400702D40120A0700EE0207CA17A042807DC042905DC664A00EB80001044405CA070A078012804D1A07C20F00400A07404E0052802D110215A4801E05A481021BDE870400DF695B870B5012400F087F920B106200CF605FB002070BD504D28688078052811D3FFF7A3FF1231
:FB0A6700E0002403200CF6F7FA2968002081F870004D48016809B104208847204670BD012804D9FFF77EFF0028F7D0E9E70DF649FBF9E710B5044645A00CF6A0FA601C0CF69AF9002010BD10B5044644A00CF696FAB4F80110E01C0CF6C5F901200DF636FA002010BD1CB501208DF800003148062201680DF101000A310C4643F6D5FE2F4806222146083843F6CFFE072168460CF6A6FA1CBD2748006881785A30062909D2DFE801F00806060603062FA00CF666BA0CF63BBA704710B51E4C206890F87010042914D1017891B9817803290DD100F1710110225A3043F6A7FE2068062180F8701000215A300CF6F0FB012010BD002010BD12490C390860704775
:FB0B62000E4800688078032805D10D480C380068002800D00047704708B505218DF800108DF80100022168460CF65CFA08480168002901D00020884708BDAC0620006452200028522000B006200040A30400B4062000456E6320696E666F3A204C544B0000006D617374657220696400000070616972696E67206D6574686F642C20426F746820496E70757400002D498860704710B50446C0783C2803D12948806800B18047204610BD26494860704725484068002800D0004770472348704710B501460622204843F633FE06221E491F4843F62EFE1E490120087010BD1949024608680A60704770B504460AF63FF8054620780F2815D1174900200870A015
:FB0C5D0088A0F5806106390DD1A07858B109F6A9FF18B11148008809F6F3FF12200BF629FA0AF651FB0848016809B120468847284670BD0A480078002803D0AFF2550008600220704700003852200078062000BC0D2000390620003B062000420620003D06200030B5DDE90345884215D8022813D34FF4486081420FD8B2F5FA7F0CD2521C5143B1EB830F07DA0A2B05D3834203D8AC4201D8012030BD002030BD0720704707207047000010B50A4C207800280ED10948FBF5BAFF084809490068C8600848FBF5BAFF0848FBF5B3FF0120207010BD00004452200093120000200420008C17200021120000ED11000001480078704700004552200012490870F4
:FB0D5800704712481249006809780278012A01D1407B00E0C07C884201D206207047002070470A480068017800F1E902012901D1407B00E0C07C102804D2C0F11001104443F6A1BD70470000A4062000AC062000465220002DE9F04728484FF4481504682869002700F00F00022802D0002028646864DFF88C80DFF88C90D8F8000038B9D9F80000A04203D11F480068C00332D41E481F4E006888B1286900F00F00022802D0022025F699FFE8686421401C48431849B1FBF0F0411C316014E027F690FE154816490068096848431549098800FB01F2144900EB801009684000B2FBF1F2B0FBF1F03260C5F89C0030686862C8F80070C9F80040BDE8F0870013
:FB0E530000080E2000D00C2000D40C2000B00C2000100E2000FC102000C0C20400F8102000E01020008C0C2000EC1020007FB54FF44812D2F8C000C0074ED09B48916A006809074FF0000503D5002022F6D9FC3AE0116A814203D1002025F6B5FD33E093490968081A116901F00F0102290ED1D1686422491C5143A1FB000201FB052100234FF4166243F68CFC044616E088498A4C09682468A1FB000201FB0521854A2B461268624343F67CFC040006D002A9204625F695FC02A825F640FD204622F6A0FC20463BF619F94FF4F040CDE9000501467A480160019941607FBD10B5784828F6B1FA79497748486178494FF4FA70088010BD7748007808B1012039
:FB0F4E0070470320704710B57348007800280FD13BF605F900280BD070480068400703D5BDE8104028F6E3BBBDE8104025F637BF10BD2DE9F04105460024FBF592FB8046FBF592FB4FF44810016901F00F01022921D0604B624E624945B91A785ABB614F32683F783A440F68BA4224D25F4A1468012C09D15E4C5E4F24683F683C440F68BC4208D8022414600968012231601A700021C16104E04046BDE8F041FBF567BBC1690129FCD1444909684161C261012481690029FCD14046FBF559FB002D07D1002C05D0BDE8F04140F2DC5025F6D0BDBDE8F0812DE9F047FBF543FB8146FBF543FB4FF4481CDCF810003A4B00F00F000022022801D11A7053E01871
:FB10490078002850D0DCF81800012805D1DCF81800012801D11A7043E0DCF81800012842D9DCF8100000F00F0002283CD0304C264F2068DFF8B4803F1F022805D13A7003202060012088F80000DCF818102B4E387846F82010401CC0B20A21B0FBF1F501FB15003870CCF81C201A702068032806D13878A8B92820226088F8000000E078B90E4B00201A6056F820201C68401C22441A600A28F7DB501DB0FBF1F0186002E001203BF688F84846BDE8F047FBF5E1BA0000DC0C2000E40C2000EC102000E0102000F810200000E100E04C522000754D2000A8222000B00C2000DD102000BC0C2000E4102000C4102000DC102000E8102000F0102000F4102000A7
:FB1144007452200070B50C461D4600230E4910E082420DD1B1F805202046A24200D8104682B2D1F8011028461DF6EEFA2B1903E0C91D0A78FE2AEBD1184670BDAFF23B00024908607047000004522000180A200010B50749021D0B6833B10088B2F80110C01ED21C984701E00EF619FC002010BDF40620002DE9FC4780460025284625F62AFC4848007800287DD0DFF81C910127B8F1000F3ED099F83E10484649B140F27122B8FBF2F1828E4A434FF4C861B2FBF1F63E4981468A460C6818E0E17A201F012913D1827B07FA02F10D4399F83E1061B101688A6A0021904738B190F8201021B1418B3144418320F616FD24685445E4D17DB16946404625F6F9C5
:FB123F00FA012407FA04F0284203D06946204625F6CDFB641C032CF4D321F6B5FAD9F81C004D464FF4461498B1417D022910D1D4F8B415807BC1F301166A46314625F62FFB0098694600F003000090304625F6AEFB0020E861E86017480168814201D021F634FA20F6C0FF14490868884202D0001F20F654FF11480168814203D020F639FC20F6EEFB3820E06000E00BE095F83B00012807D10A4803880A4802780220114620F692F9BDE8FC87ED0E20002C222000140B20001C0B20002C0B2000240B2000000B2000F10A200001B543F6C1FA01BDBD465220000200FE00000000000000000A54001452200000000000000000000000000000000000000000A7
:FB133A0000D20400000000000000000000000000000000000000000000000000000000071000000000000000003B4E2000000000000000000000000000000000000A08009C522000E362B7000A1004A452200070B52D482D4943F692FA00F033F92C49012008702B480026067040F601704FF4C004C4F81402284948F62F00086027490860274948F21420086026490860264940F678400860254947F2555008604FF44810C16F21F40031C1674FF46415286CC0070ED0002025F68CFC54F8E00F20F080002060286C20F003002864322025F6C6FB17480670FFF74CFA00F085F9164914480860164915480860174915480860164902200860FFF793FE16483A
:FB1435001449C0F864111549C16270BD64522000380000005C452000F815200020112000501120002411200054112000941120008C1120000C0C20003D46200038452000A05220005C0C2000E94720000C072000E81020004B462000B02B2000A14C2000034802498030FFF78AB90000694520001D1A0400034802498A30FFF780B9000079452000935701000348024900F25E20FFF775B991452000C7130100034802494A30FFF76CB9000039482000E3E40000164815495C30FFF762B9164814492E30FFF75DB914491548FFF759B915481449801CFFF754B914491448FFF750B9154813493230FFF74BB914481349801CFFF746B9144812492830FFF741A1
:FB153000B913481249801CFFF73CB900009945200071200100AD452000632101008F492000A9220100C7452000C3220100C1492000791C0100CF452000EB0F0100F1492000E70E0100E1452000FD120100F3452000530F010006490748FFF713B9074806492830FFF70EB907480549801CFFF709B9F9452000C9F20000054620007DF3000011462000C3EC000006490748FFF7F9B806490748FFF7F5B807480649801CFFF7F0B80000B54B2000A5100400EF4B200011820200194620003382020001490248FFF7DFB8F94B2000C512000010B500F010F827490870C0B2012809D1254800680121B1EB106F03D0BDE8104029F604BC10BD2DE9F0414FF4807588
:FB162B002C460F21012019F6A2FF0746AE00002332460F21012019F6F8FE641EFDD20F2101201AF619F8044600233A460F21012019F6EBFE14B10020BDE8F0810E21012019F685FF0446002332460E21012019F6DCFE6D1EFDD20E21012019F6FDFF0546002322460E21012019F6CFFE0DB10120E2E70220E0E7455220009C522000054804491430FFF780B8054803497030FFF77BB81D462000250C010029462000790B010005490648FFF76FB805490648FFF76BB805490648FFF767B8494E20001DCA0200754E2000F5000400174F20007101040003480249801CFFF756B80000354620002737010001490248FFF74DB8AD5020004977020010B5FFF7B785
:FB172600FEFFF7BFFEFFF7C7FEFFF7CFFEFFF7D7FEFFF7DAFEFFF7DDFEFFF7DFFEFFF7E2FEFFF7E4FEFFF7E7FEFFF7EAFEFFF7EDFEFFF715FFFFF717FFFFF71AFFFFF729FFFFF72BFFFFF72DFFFFF73DFFFFF799FFFFF79CFFFFF7A7FFFFF7A9FFFFF7ABFFFFF7B9FFBDE81040FFF7BFBF00000B0400A4522000C03C0310006000FFFFFFFF0800000038006000FFFFFFFF900000006C006000FFFFFFFF0F00000024016000FFFFFFFF5500000028016000FFFFFFFF790000002C016000FFFFFFFF0400000030016000FFFFFFFF5600000034016000FFFFFFFF9500000038016000FFFFFFFF550000003C016000FFFFFFFF7900000040016000FFFFFFFF0400B3
:FB182100000044016000FFFFFFFF5600000048016000FFFFFFFF9500000084016000FFFFFFFF8001000094016000FFFFFFFF59090000B8016000FFFFFFFF80000000E0016000FFFFFFFF600000000C026000FFFFFFFF00E0000018026000FFFFFFFF557500001C026000FFFFFFFFA806000020026000FFFFFFFFB008000024026000FFFFFFFFA8060000C4026000FFFFFFFF11000000F0026000FFFFFFFF00470000F4026000FFFFFFFF0100000014036000FFFFFFFF003F00001C036000FFFFFFFF1000000044036000FFFFFFFF30000000F4036000FFFFFFFF780C000030FC3100FFFFFFFF6F0400003CFC3100FFFFFFFF00B0000058FC3100FFFFFFFF98A0
:FB191C006200005CFC3100FFFFFFFF0200000064FC3100FFFFFFFF1F200000C8FC3100FFFFFFFF10820000CCFC3100FFFFFFFF28400000D0FC3100FFFFFFFF09C90000D4FC3100FFFFFFFF00C10000DCFC3100FFFFFFFF08C80000E0FC3100FFFFFFFF07C70000E4FC3100FFFFFFFF4A880000E8FC3100FFFFFFFF0DC8000000FD3100FFFFFFFF00A20000CCFD3100FFFFFFFF00800000F0FD3100FFFFFFFF00150000F4FD3100FFFFFFFF66000000F8FD3100FFFFFFFF29450000ACFE3100FFFFFFFFEA390000DCFE3100FFFFFFFFF102000028FF3100FFFFFFFF4208000034FF3100FFFFFFFF1662000038FF3100FFFFFFFF8D21000058FF3100FFFFFFFFBC
:FB1A1700E20100006CFF3100FFFFFFFFE700000070FF3100FFFFFFFF1B03000074FF3100FFFFFFFFEA03000078FF3100FFFFFFFF4B0000007CFF3100FFFFFFFF0800000080FF3100FFFFFFFF7A03000084FF3100FFFFFFFF0E00000088FF3100FFFFFFFF870300008CFF3100FFFFFFFF0000000090FF3100FFFFFFFF2703000094FF3100FFFFFFFF64000000E0FF3100FFFFFFFF0D480000E8FF3100FFFFFFFF0A000000F8FF3100FFFFFFFF1482000014026000FFFFFFFF010F0000D8FC3100FFFFFFFF2F8800000A9215A052200007B51BF67DF910F0800006D01AF612FF084B002814BF18460020074B074A00900193074840F2CD2102F1690309F6FAF863
:FB1B12000EBD00BF30682000E55720002D6B20006068200002DB11250FF6FDB80FF6DDB8BDE8704000F01ABA2DE9F05F9246DDF8288083460C4602461E4641466C200EF64DFC050044D158460FF61BF80746FBF575FD5FEA000902D11120BDE8F09F3019B8422DDC7EB158460EF6FAFB01193246484643F61FFA58460EF6F2FB20443246514643F617FA58460EF6A5FB0746A11958460EF6CDFFB8F1000F16DB58460EF6DCFF050011D058460EF6DAFB20443246494643F6FFF9394658460EF6B9FF04E0BC4201DB072500E00D254846FBF538FD2846C2E72DE9FC5FDFF814B101904FF00008DBF800200646C246C146002A61D0012E21D13F4900200B680F12
:FB1C0D00E052F8201059B10C78A24410B9B1F8015005E0B1F80110A94201D0002602E0401C9842EDDB0020012E02D15046FBF508FD5FEA000902D100264FF01108002713E0DBF8000050F827406CB12278B4F80150012E05D1B4F80300611D484443F6ACF92046FBF5EFFC7F1C234800688742E7DB5C46DBF80000FBF5E5FC00202060012E1AD1B8F1000F17D11C481D4C00680DE00188A94208D12023009353464A460021FFF744FF804604E00EF63AFB21688842EED34846FBF5C6FC0198012807D1B8F1000F04D02A46182140460DF689FE4046BDE8FC9F08B54FF000430093931E8A1C00210EF6B2FF08BD002801D00249086070470000000720000407D7
:FB1D0800200010072000140720002DE9F04100F078F84C4E0025E0B14C48C06808B133F611FA3078002812D14948006800280ED1474C0127E774464920461FF600FE7F20A074E573A57320461FF67EFD3770BDE8F08130780028FAD03F483C4900688842F5D108461FF698FF3570F0E710B5FFF7CCFF34488068002802D0BDE81040004710BD10B5FFF7C1FF2F484068002802D0BDE81040004710BD70B50446B0F848502E48006840050ED426F6D4F92C49B0FBF1F04FF47A71484340F27121B0FBF1F020F0010005440220E074A07B25F605F846083046A16924F686FFB4F84810884200D9A661A069284420F07840A061204621F65BFC00F041F870BD122A
:FB1E03004A50709170704710B5104A5078272816D84FF46411002301EB8004C4F80032030901EB8301D1F8003100F00F04012000FA04F10B40927899B21AB101B110BD002010BD0029FBD110BD00008C6E2000D8382000FC6E2000000F20002C222000CC0D200075D1451710B535490A682AB10121AD2800D00021084690472B2010BD10B52F492F4C30480A68BAB10268AAB1024692F82720012A10D00222E274C27BE273827BA2738069496824F61FFFA061206858B1204621F6FBFB13E02068002816D02046BDE810401FF6E9BE1F4920461FF638FD222020740020A074607420461FF6B5FCBDE81040AD21194811F6E8BA10BD10B50446007D01210328C2
:FB1EFE0001D004280ED100290CD00E480068002808D000210F4811F6D5FA2046BDE810401FF60EBE10BD00207047182143F673B8044A106040F27120B1FBF0F020F0010050607047986E2000146F2000E0332000246C2000295620002F49042800D20420087070472C49042800D204204870704770B52A4D0C462968CA7B0AB9097C11B10C21017070BD244BB4F803101A781226914211D3B4F80520B2F5804F0CD891420AD8227C520707D0E279022A01D0032A04D15A78914201D2067070BDFAF514FF0646FAF514FF2B68E079D872207A1873207C5873B4F8030020F001001880B4F8050020F001005880E079012801D004280BD1607A987204F10A01062C
:FB1FF90022181D42F6E3FF29680020887301E0607C98733046BDE87040FAF5EEBEA06E2000DC0D2000704770477047000008B5244B00221A60234B18680FF6CFFF1AF6D4FE030606D51AF66AFC18B11F4B186810F6EEF801201D490FF63CFE02201C490FF638FE1C4903200FF634FE1B4809F608FB1A480CF6FAFA1A480EF63BFF194810F604FE0FF6B3FE1848184910F651FE0FF659FD01210A464FF4FA2019F6A9FC40F6C4111348FFF746FF002009F6D8FE00F0B5FC00F00AFA0120BDE8084000F070BA4C062000540820005C082000ED5B2000B158200095592000155B200061592000ED5A2000DF572000AD582000DD572000ED58200000F0E6B910B56E
:FB20F4000B4C06212046002242F683FF0023E380084B1B7823B1032007490FF672FA02E0012000F040FABDE8104000F0D0B9A46E2000886E2000486F200010B59EB090BB0E2018A910F6FAF99DF86020102A2AD102238DF8003001238DF8013005238DF80230114C11230DF162018DF81F300DF1210007238DF8203042F62BFF2068143042F65AFF2168421CD2B28DF83E200923143110A8013A8DF83F3042F61AFF684603210FF611FC1EB010BD54082000032810B512D10AF6B2FA094C01460622204642F607FF0023102009212246A371E3712372BDE8104010F6A3B910BD00BF486F2000034B1B781BB1034903200FF609BA7047886E2000486F2000F898
:FB21EF00B50546901C17460E46FBF529FA002204462EB907E0B35C6BB1A1188B700132BA42F8D107E06E2383707523C3706C23037143710422172A227006DD023292B228462146FFF756FD03E02846214610F685F92046BDE8F840FBF504BA152838B50D46144635D004D811280ED013285FD117E04FF6037398424CD0023398424FD04FF60273984253D13EE0022950D151781278294B02EB012292B29A71120ADA7144E0002905DD10462449042242F6CFFE30B12378002B08BF1C4608BF1D4601E0044605462946204600F012F90146132016E0002905DD10461849042242F6B7FE30B12378002B08BF1C4608BF1D4601E0044605462946204600F026F933
:FB22EA00014615208022FFF77DFF11E0002911DD104600F02BFC0BE002290BD1104600F0BBFC05E04B1E162B06D8104600F0C2FC002038BD802038BD802038BD486F2000506C200070B504460EF65AF8064620460DF6D5FF054620460EF616F8294602463046BDE87040FFF77BBF000030B52F4C8DB00AF6D8F922460921102010F6CEF802238DF80030A379E279112043EA02238DF8023069461B0A8DF80330244C10F6DFF80DF11A051DE0013BDBB20AB323720F2006A910F6C7F81C4B9B79DA0706D59DF818200F20294610F646F90AE0637A43B9012363729DF818200F202946154B10F620F9114B617A9A79DB7942EA0322237A0BB10029D7D00D4A1398
:FB23E500720E4B1B7853B90B4B5B7A3BB90C4B0D491B6893F8320010F620FE06E01420282100224FF42F7310F655FE0DB030BD00BF486F2000A46E2000E1572000886E200054082000A54F010038B50AF63EF91E4CE0800AF66AF906220146204642F6C0FD002000F0A7F810F610FE184B1B6893F82E405CB10AF6A0F910BB154B1B689A7942F001029A710CF67FF819E00AF64DF9104D01460622284642F6A2FD09212A461020AC71EC712C7210F641F82046FFF75FFF1420282122464FF42F7310F60AFEBDE8384000F009B8A46E200054082000AC062000486F200070477047704708B500F03CFA00F00EF900F060FA00F078FABDE8084000F05BBA08B5F0
:FB24E0000378A3F13100424242EB0002742B08BF42F0010292B9A3F130014A4242EB0102662B14BF134642F001035BB9084A1378D3F1010338BF002313701BB1054800F03CFA01E000F049FA002008BD00BFAE6E2000F3FB070070B50D4604460D2000F0A4F9002D27DD2378742B20D0662B08BF40F2FF311CD0631913F8013C303BDBB2092B14D8012200230A20611911F8011C3039CEB2092E9CBF02FB01334243013DF3D133215943C1F57E71073100E000210D2000F0C7F9002070BD30B50D4D044685B028460621002242F62DFDAC7154B10020A0210722034600900190029009F616F905B030BD204605B0BDE8304009F63BB9AF6E2000436882689A64
:FB25DB0042C36805D2501C1A1A504240EB020070470068C31A584240EB0300704729B1013A8A18016042608160C160704738B504460D46FFF7E2FF58B9A3681D70A3686268934224BF2368A36002D20133A36038BD38BDC26803468068C2EB000CDCF1000040EB0C0058B912780A70DA6859688A4224BF1A68DA6002D20132DA6070477047000007B50C4B02221A600B480DF10701FFF7DFFF70B99DF807001AF614FD074B1A6842F002021A60064B1B6813B19DF8070098470EBD88003600546F2000AC003600D86E200013B50E4C09E09DF807100D48FFF7ABFF636813B19DF8070098471AF68FFC28B10DF107001AF604FD0028ECD1054B04221A605A6A28
:FB26D60042F004025A621CBDD86E2000E46F20008800360010B580221D481E49FFF781FF1D4C80221D481E49FFF77BFF1AF6E9FB00224FF4E13323602021134621201AF640FD0020226801461AF699FB1AF62EFC1AF638FC134B04221A6002221A60124B01221A6000225A60104B1A6842F004021A601A6842F002021A600D4A0D4B1A600D4A0E4B1A60BDE810401AF6FEBB00BFE46F2000646F200040092000546F2000F46F200088003600AC043600AC003600615E2000340920001D5E20003C092000013805289ABF024B33F9100000207047B46B2000A0F1080370B504460D461E2B5AD8DFE803F0105959171E252C5959595959595959595959343B42D3
:FB27D10059595959495959595950000320FFF7DAFF012182B202201AE00320FFF7D3FF0B2182B2012013E00320FFF7CCFF0A2182B201200CE00320FFF7C5FF0C2182B2012005E00320FFF7BEFF062182B20220002322E00320FFF7B6FF0C2182B200201AE00320FFF7AFFF0B2182B2002013E00320FFF7A8FF0D2182B200200CE00320FFF7A1FF082182B2002005E00320FFF79AFF0E2182B20020034619F692F92846FFF791FFC4F3071382B204F00F0118460023BDE8704019F684B90E2810B5044620D002D80D282DD11AE01A280BD01B2828D100210A46012040F2FF331AF6B4FD01200B2108E000200146024640F2FF331AF6AAFD01200A214FF480423E
:FB28CC0000230DE0032000E0022000210A4640F2FF331AF69BFD0020214644F220020346BDE8104019F64FB910BDB1F5806F12D20E280DD002D80D280DD107E01A2803D01B2808D1012004E0002002E0032000E002201AF69BBD70470022FFF7E6BF10B5C0B20C461BF671FF034619462046BDE810401BF603BF08B51AF64DFA030612D519F6E3FF78B11B200321FFF728FF1A200321FFF724FF0E200321FFF720FF0D200321FFF71CFF1BF624FF054B0F201A6840F239316FF306121A60BDE80840FFF7CEBF4400390070470E20FFF778BF064AB2FBF0F2C2F5FE610E31C2F57E72490807320E20FFF7A1BF00BF0080841E40F2FF310E200A46FFF798BF3719
:FB29C700B50C4B04220024012519219A701A7118221D705C70D9705A719C7128461BF6A2FA0323009328460349224623461BF6DAFA3EBDB209200040420F00034B1B78042B01D100F050BA704700BFE06E200008B5034B00221A7000F090F9012008BDE06E20002DE9F04100234FF0010C104F1AE0CE5C0724002516F0010F1CBF0CFA04F845EA0805760814F1FF34F4D280EA0560082400284FEA4000B8BF7840013CE4B2002CF6D101339342E2DBBDE8F081B71DC10410B51F230022012110F0010F1CBF01FA03F42243400813F1FF33F5D2D04310BDF0B5002087B04FF0FF34154F13E000F11406AE422CBFC0EB0505142501A92A4600F0E6F9204601A9A9
:FB2AC2002A46FFF7B1FF044628F664FD30463D68A842E8D32046FFF7CFFF084D044629680748224608F64CFB2868231A584240EB030007B0F0BD00BF787020007C702000556C200037B50F4A034615880C468DF8070025B90C4808F620FB284610E00B48194608F624FB4FF602700DF1070101221CB1074B0FF66AFD01E00FF681FD01203EBD00BFC6702000766C20008A6C2000C1612000F8B5404F067804460D463A783E48314608F60CFB012E03D100203E7001461BE0072E06D1052300203B700146FFF7C0FF45E03B78012B03D060D3022B5AD136E0022E57D1022DD8BF304835DD00F004F9064620B904203146FFF7AAFF4FE0062000224FF42F7301BA
:FB2BBD004608F64BF8284A00231360284A042D1360274A13606378A27803EB0222254B1A6006DD2179E078090601EB00418A181A601A4B022119701F4B1F481A6808F6C2FA0020014624E0032E20D1042D05DC1B48294608F6AEFA00261DE06378A27803EB0222E37802EB0342237902EB0362144B1A60FFF733FF014620B104233B700020012105E005233B70304601E002200021FFF75AFF01263046F8BD00BFE06E20009A6C2000AF6C200080702000747020008470200078702000C46C2000DB6C20007C702000022907D103784278012003EB0222024B1A80704700207047C6702000F7B51C4F1C4D0C462A6839681B4E8646336888180019984202D883
:FB2CB80010193C2805DD1748009408F670FA002022E0154871461018224642F678F92A68A2183C2A2A6004D0396833685118994211D1094D0D49286800F097F82B681BB90A481E2108F66FFA054B29681A688A182A6000221A600120FEBD847020007470200078702000EE6C200089702000054B1B6803F07003102B0CBF40F07F4040F07840704700BFCC442000124B10B5124C1A681248216808F618FA114B124A1968124B01F07001103918BF0121282000FB01221960236891688B420AD01269934207D00A4808F6EEF90A48BDE8104008F6E9B910BD00BFD4442000D84420001D6D2000CC442000C86B2000E46E20003F6D20008D6D200038B5174B177D
:FB2DB3004D1968174C2B68282202FB03429068814207D01269914204D0134808F6C5F9002038BD8142696018BF024603D1282202FB034422690A4C81420A48A26025464FF0280404FB03030CBF5B69DB680748EB6008F6C5F9012038BD00BFD8442000E46E2000C86B2000EA6D20001D6E20002DE9F041DFF85C800446D8F808000D4620181746FFF776FF114B06461B6803F07003103B18BF0123002C14BF002403F001046CB1044606E020464FF4805110F601FF04F58054D8F80C30F3189C42F3D3284631463A46BDE8F04110F6CABE00BFCC442000E46E200038B5074B0D469B681446C018FFF746FF22460146284610F671FF002038BD00BFE46E20003A
:FB2EAE00544B2DE9F0431B6895B003F07003102B28D0DFF84491DFF848810024D8F800300A2707FB034359F82300FFF725FF4A4E01462822494810F64FFF484806F150010B22474D42F6A3F840B92B68454A07FB034456F824302B6113600EE00134022C0BD0DBE73F4B18683D4B1861FFF704FF28220146394810F62FFF394D28223749684642F649F82B6828214B43324AD058D1182B69834208BF48686861FFF7ECFEAB680446C3F307228DF81E308DF81F20C3F307421B0E8DF82130264B8DF820201B6803F07003102B03D04FF4805110F673FE28226846214610F645FE024618B1214808F6E4F829E028210AA842F634F80AA82146282210F6EFFEF890
:FB2FA900B90AA86946282242F644F8C8B9144B1A7882F001021A70134B1869FFF7AFFE0E4B04461B6803F07003102B03D04FF4805110F644FE21462822094810F616FE02E00B4808F6B6F810F699FA002010F6EBFD15B0BDE8F08300BFCC442000C86B2000C8702000E46E2000D4442000506E2000686E2000074B4FF400121A60064A074B1A60074B02221A70064B1A6842F004021A6070472C062000A152200000042000F00520005006200008B500F087FC00F090FC00F09FFC00F067FC00F069FCBDE8084000F06ABC0A59063068200001FFFFFFFFFFFFFFFFFFFFFFFFFFFFFF110000000000000000000000000000000000000000000000000000000040
:FB30A40000000001000204002801180200020400280018030002070328020400002A04000222002A75695F64656D6F00000000000000000000000000000000000000000000000000050002070328020600012A06000204012A00020700020400280A18080002070328020900292A09000208292A416E6172656E0A0002070328020B00242A0B00020A242A31323334000000000C0002070328020D00232A0D00020A232A93B863805F9F91710E0002120028A6B41F8D1C16368D0446FBA2DEA217C90F0002150328121000A7B41F8D1C16368D0446FBA2DEA217C910008390A7B41F8D1C16368D0446FBA2DEA217C90000000000000000000000000000000015
:FB319F000000000000000000000000000000000000000000000000000000000000000000000000000000000000000000000000000000000000000000000000000000000000000000000000000000000000000000000000000000000000000000000000000000000000000000000000000000000011000A0402022900001200021503280A1300A8B41F8D1C16368D0446FBA2DEA217C91300AF9080A8B41F8D1C16368D0446FBA2DEA217C90000000000000000000000000000000000000000000000000000000000000000000000000000000000000000000000000000000000000000000000000000000000000000000000000000000000000000000000001E
:FB329A0000000000000000000000000000000000000000000000000000000000000000000000000000000000000000001400021503280A1500A9B41F8D1C16368D0446FBA2DEA217C91500AF9080A9B41F8D1C16368D0446FBA2DEA217C90000000000000000000000000000000000000000000000000000000000000000000000000000000000000000000000000000000000000000000000000000000000000000000000000000000000000000000000000000000000000000000000000000000000000000000000000000000000000000000000000000000000000000E8030400200000041E002C01000000000000000075695F64656D6F00000000000026
:FB33950000000000000200312E303000000000000403000000630000000000000000000F180000000000000000192A000000000000000000000000000000000000000000000064000000000000C20100202101000100A6B41F8D1C16368D0446FBA2DEA217C9193A010100040002000000420040004409020B040D000000000000000001000080050000007A000000800000007A0000400100000004000000000000000000000000000000100000004000000060000000A000000060000000200000001000000030000000100000010800F000006208C05D890000000000B3562000E756200000000000000000000000000000000000000000000000000000C6
:FB349000000000E35620006E756C6C000D77735F76657269667920726376643A25782063616C63756C617465643A2578000D73656E645F737461747573206661696C6564000D73656E645F737461747573202564000D436F6D6D616E643A25642053746174653A2564000D42616420446F776E6C6F6164206C656E3A2564000D73746174653A256420746F74616C5F6C656E3A2564000D42616420566572696679206C656E3A2564000D546F6F206D7563682064617461206F6666736574733A2564202B20256420746F74616C3A2564206C656E3A2564000D77735F757067726164655F696E69743A2044533A253034782053533A25303478005741524E49D0
:FB358B004E473A20557067726164652077696C6C206661696C202D20616374697665204453206973206E6F74206F6E65206F6620746865206578706563746564206C6F636174696F6E732E0A005741524E494E473A2041726520436F6E66696744534C6F636174696F6E20616E6420444C436F6E66696756534C6F636174696F6E20696E20746865202E6274702073657420757020617320696E206E765F6C6F635F6C656E5B5D3F0A00416374697665204453206973206E6F742044533120616E64206E6F74204453322E2043616E6E6F7420757067726164652E0A004163746976653A203078253038582C20557067726164653A203078253038582C205529
:FB36860047206C656E6774683A2030782530385800436F756C64206E6F74207772697465206E65772053532100436F756C64206E6F742063726561746520757067726164652053530A000A1E00886E20000100000000FF00000000000000000000000000000400000020A00AD000F070200006490748FDF7EBBA074806498230FDF7E6BA06490648FDF7E2BA0000A5532000ED440100E552200057440100F95220007943010007480849026E4A60426E8A600649016606494166704706490648FDF7C6BA0000B02B20008C6E200049552000335520005F552000B927030003480249801CFDF7B4BA0000F1522000930D04000B480C4908B5884202D00B4A416C
:49378100F602FB0A4900220A4841F61DFB0A4A0A4B22F00F021A60FFF73CFBBDE80840FFF71EBB886E2000886E20001A0000004C020000A46E2000107120005C0C20000B040071712000FE0000C9
:00000001FF
